:020000040800F2
:100000001805002045010008B90700088D07000801
:10001000B50700088D010008550D0008000000001C
:100020000000000000000000000000005909000866
:10003000E30500080000000041080008450A000828
:100040005F0100085F0100085F0100085F01000810
:100050005F0100085F0100085F0100085F01000800
:100060005F0100085F0100085F0100085F010008F0
:100070005F0100085F0100085F0100085F010008E0
:100080005F0100085F0100085F0100085F010008D0
:100090002D0D00085F0100085F0100085F010008E6
:1000A0005F0100085F0100085F0100085F010008B0
:1000B0005F0100085F0100085F0100085F010008A0
:1000C0005F0100085F0100085F0100085F01000890
:1000D0005F010008A90A00085F0100085F0100082D
:1000E0005F0100085F0100085F0100085F01000870
:1000F0005F0100085F0100085F0100085F01000860
:100100005F0100085F0100085F0100085F0100084F
:100110005F0100085F0100085F0100085F0100083F
:100120005F0100085F0100085F0100085F0100082F
:10013000DFF80CD000F018F800480047790D0008EF
:10014000180500200648804706480047FEE7FEE7FE
:10015000FEE7FEE7FEE7FEE7FEE7FEE7FEE7FEE777
:10016000490A000831010008064C074D06E0E06826
:1001700040F0010394E8070098471034AC42F6D3EE
:10018000FFF7DAFF980D0008B80D000800BFFEE782
:1001900010B500F0D9F800F098F900F001F810BDA2
:1001A00000B587B00121480600F04CFB00208DF817
:1001B000160001208DF817008DF8180000208DF82A
:1001C00019008DF81A008DF81B0001208DF812001F
:1001D00000208DF8130004208DF8140002208DF803
:1001E00015000420ADF8100004A9144800F0E3F84D
:1001F00000208DF80A008DF80B0001208DF80C000E
:100200000020ADF8000049F6A400ADF802004FF65A
:10021000FF70ADF80400ADF806000020ADF808004E
:1002200001208DF80D00684600F00AF80122022135
:10023000024800F0B7F807B000BD000000640040BD
:1002400010B50021837A012202FA03F13D4A1268B7
:1002500042F001023B4B1A603A4A1C3212688A4350
:10026000384B1C331A60027BCAB9364A0C3212680A
:100270008A43344B0C331A604288C38842EA0343F2
:10028000304A4032847A42F834300288838842EA25
:1002900003432C4A4032847A02EBC4025360027B4F
:1002A000012A19D1274A0C3212680A43254B0C3314
:1002B0001A604288038842EA0343224A4032847A21
:1002C00042F83430C288838842EA03431D4A4032F0
:1002D000847A02EBC4025360C27A3AB9194A121DF9
:1002E00012688A43174B1B1D1A6006E0154A121D3F
:1002F00012680A43134B1B1D1A60028932B9114A56
:10030000143212688A430F4B14331A600289012A8F
:1003100006D10C4A143212680A430A4B14331A608D
:10032000427B012A06D1074A1C3212680A43054B58
:100330001C331A60034A126822F00102014B1A6052
:1003400010BD00000066004008B50121082000F043
:1003500089FA0121084600F085FA01214FF4EB10DB
:1003600000F0CCF918208DF803004FF40070ADF8C0
:10037000000003208DF802006946094800F032F9B8
:1003800048208DF803004FF48070ADF80000032082
:100390008DF802006946024800F024F908BD00000B
:1003A000000C01401AB143690B43436102E0436909
:1003B0008B434361704730B5024600200023146828
:1003C00024F002041460146844F00104146000E096
:1003D0005B1C546804F001041CB94FF6FF74A3427F
:1003E000F6D1546804F001040CB900206CE08C795B
:1003F000012C04D1146844F08004146003E01468F4
:1004000024F080041460CC79012C04D1146844F0E9
:100410004004146003E0146824F0400414600C7A73
:10042000012C04D1146844F02004146003E0146823
:1004300024F0200414604C7A012C04D1146844F098
:100440001004146003E0146824F0100414608C7A23
:10045000012C04D1146844F00804146003E014680B
:1004600024F008041460CC7A012C04D1146844F000
:100470000404146003E0146824F0040414608C780D
:10048000A407CD7844EA05640D7944EA05444D7922
:1004900044EA05540D886D1E2C43D461146824F081
:1004A00001041460002300E05B1C546804F00104A4
:1004B0001CB14FF6FF74A342F6D1546804F0010456
:1004C0000CB1002000E0012030BD08B54FF4C06041
:1004D00000F0ACF914208DF8000000208DF8010028
:1004E0008DF8020001208DF80300684600F066F9DF
:1004F00008BD10B500F5D87303EB01131B6803F0BA
:1005000004031372137A53B900F5D87303EB011384
:100510001B6840F2FF7404EA5353136009E000F5CE
:10052000D87303EB01131B686FF0604404EAD30334
:10053000536000F5D87303EB01131B6803F002034B
:10054000537200F5D87303EB01135B6803F00F03DC
:10055000937200F5D87303EB01135B681B0AD37425
:1005600000F5D87303EB01139B68D37200F5D873C1
:1005700003EB01139B681C0A147300F5D87303EB9B
:1005800001139B681C0C547300F5D87303EB011323
:100590009B681B0E937300F5D87303EB0113DB68A4
:1005A000D37300F5D87303EB0113DB681C0A1474D2
:1005B00000F5D87303EB0113DB681C0C547400F5D1
:1005C000D87303EB0113DB681B0E937421B9C36866
:1005D00043F02003C36003E0036943F02003036199
:1005E00010BD70472DE9F04102460025002600208D
:1005F00000230024002791F803C00CF00F0591F8A8
:1006000003C00CF0100CBCF1000F03D091F802C035
:100610004CEA050591F800C0BCF1000F31D0146818
:1006200000202BE04FF0010C0CFA00F3B1F800C0F1
:100630000CEA03069E4220D183004FF00F0C0CFA07
:1006400003F7BC4305FA03FC4CEA040491F803C029
:10065000BCF1280F06D14FF0010C0CFA00FCC2F8D7
:1006600014C00AE091F803C0BCF1480F05D14FF067
:10067000010C0CFA00FCC2F810C0401C0828D1D3B1
:100680001460B1F800C0BCF1FF0F34DD54680020E5
:100690002EE000F1080C4FF0010808FA0CF3B1F855
:1006A00000C00CEA03069E4221D183004FF00F0CDC
:1006B0000CFA03F7BC4305FA03FC4CEA040491F876
:1006C00003C0BCF1280F05D100F1080C08FA0CF8A2
:1006D000C2F8148091F803C0BCF1480F07D100F1B3
:1006E000080C4FF0010808FA0CF8C2F81080401C02
:1006F0000828CED35460BDE8F0810000F0B50A466A
:10070000002300240021002500F00046B6F1004F30
:1007100002D11D4EF16901E01B4E7168C0F3034523
:1007200083B200F44016B6F5401F08D121F0706185
:10073000154E766826F07066134F7E6012E000F466
:100740008016B6F5801F06D1032606FA05F4A143EC
:1007500041F0706106E0460D360103FA06F6B1433A
:1007600041F0706122B1460D360103FA06F63143BD
:1007700000F00046B6F1004F02D1034EF16101E0F6
:10078000014E7160F0BD00000000014000BFFEE7B7
:10079000002100220260426002728272C27400BFB5
:1007A00005E0002300F10B0253544A1CD1B2082982
:1007B000F7DB704700BFFEE77047000070B500210F
:1007C00000230F22C47804B3154C246804F4E064B9
:1007D000C4F5E064210AC1F10403CA40447804FA74
:1007E00003F184781440214309010E4C0678A15589
:1007F000047804F01F050124AC4005786D11AD00AC
:1008000005F1E025C5F8004109E0047804F01F0572
:100810000124AC40044D0678761145F8264070BDA1
:100820000CED00E000E400E080E100E0024901435B
:10083000024A1160704700000000FA050CED00E06C
:100840007047000029B1064AD2690243044BDA61BD
:1008500004E0034AD2698243014BDA617047000029
:100860000010024029B1064A92690243044B9A6182
:1008700004E0034A92698243014B9A617047000089
:100880000010024030B500210022002400232D4D2D
:100890006D6805F00C0121B1042905D0082923D188
:1008A00005E0294D056022E0274D05601FE0254D3C
:1008B0006D6805F47012234D6D6805F480340225CF
:1008C00005EB92421CB9214D554305600BE01D4DCF
:1008D0006D6805F400351DB11C4D5543056002E0FF
:1008E000194D5543056002E0174D056000BF00BF7C
:1008F000144D6D6805F0F0010909154D6B5C056834
:10090000DD4045600F4D6D6805F4E061090A104D4A
:100910006B5C4568DD4085600A4D6D6805F460518B
:10092000C90A0B4D6B5C4568DD40C560054D6D68BF
:1009300005F44041890B074D6B5CC568B5FBF3F5C9
:10094000056130BD0010024000127A0000093D0030
:100950000000002010000020704710B500F002F8E1
:1009600010BD00000CB500200190009033480068D5
:1009700040F480303149086000BF3048006800F41E
:10098000003000900198401C0190009818B901981F
:10099000B0F5A06FF1D12948006800F4003010B123
:1009A0000120009001E0002000900098012843D130
:1009B0002348006840F0100021490860084600689C
:1009C00020F0030008600846006840F0020008605C
:1009D0001A48406819494860084640684860084617
:1009E000406840F4806048600846406820F47C100D
:1009F00048600846406840F4E810486008460068CF
:100A000040F08070086000BF0C48006800F0007083
:100A10000028F9D00948406820F0030007494860E1
:100A20000846406840F00200486000BF0348406844
:100A300000F00C000828F9D10CBD000000100240A5
:100A4000002002407047000010B51348006840F0D5
:100A500001001149086008464068104908400E49E5
:100A60004860084600680E4908400B49086008467F
:100A7000006820F4802008600846406820F4FE00EA
:100A800048604FF41F008860FFF767FF4FF0006079
:100A90000449086010BD0000001002400000FFF88B
:100AA000FFFFF6FE08ED00E010B540F225510848C2
:100AB00000F07AF850B1064800F032F905490870A4
:100AC000084600780449054A1268885410BD0000A1
:100AD000003801401D0000203800002018000020D0
:100AE00000B587B001210420FFF7BCFE0121880377
:100AF000FFF7B8FE4FF40070ADF8180018208DF81D
:100B00001B0001208DF81A0006A91F48FFF76AFD97
:100B10004FF48060ADF8180004208DF81B00012010
:100B20008DF81A0006A91848FFF75CFD4FF416501F
:100B300002900020ADF814000C20ADF81200002047
:100B4000ADF81000ADF80E00ADF80C0002A90F488A
:100B500000F07AF801210D4800F01AF8012240F265
:100B600025510A4800F04AF825208DF8040001209C
:100B70008DF807008DF805008DF8060001A8FFF735
:100B80001DFE07B000BD0000000801400038014014
:100B900021B1828942F40052828104E082894DF6BB
:100BA000FF731A408281704770B50246002400230B
:100BB0000025002040F66A16B14200D100BFC1F303
:100BC000421501F01F03012606FA03F3012D02D19D
:100BD0009689334006E0022D02D1168A334001E0A7
:100BE000968A33400C12012606FA04F41688344023
:100BF00013B10CB1012000E0002070BDF0B5034638
:100C0000002400260025002040F66A17B94200D1D2
:100C100000BF1846C1F3421401F01F06012707FA6E
:100C200006F5012C01D10C3004E0022C01D110306A
:100C300000E014301AB107682F43076002E007682C
:100C4000AF430760F0BD00002DE9F04786B00546D0
:100C50000E460024A24600BFA1460027B08900B17D
:100C600000BF2F462C8A4CF6FF700440F0880443E6
:100C70002C82AC894EF6F3100440B08831890843C9
:100C8000718908430443AC81AC8A4FF6FF400440AD
:100C9000B0890443AC8201A8FFF7F4FD1F488742E6
:100CA00002D1DDF810A001E0DDF80CA0A88900F465
:100CB000004040B10AEBCA0000EB0A10316849005D
:100CC000B0FBF1F807E00AEBCA0000EB0A1031684C
:100CD0008900B0FBF1F86420B8FBF0F004012009B2
:100CE000642101FB1089A88900F4004040B1322042
:100CF00000EBC900B0FBF1F000F00700044308E08E
:100D0000322000EB09106421B0FBF1F000F00F007D
:100D100004432C8106B0BDE8F08700000038014094
:100D200001468888C0F308007047000010B50648E7
:100D3000FFF72EFD044A00210448FFF7DAFB0120EB
:100D40000349087010BD000024000020006400402A
:100D50001400002000BFFEE702E008C8121F08C10F
:100D6000002AFAD170477047002001E001C1121F2C
:100D7000002AFBD1704700001CB505A103C9CDE9CD
:100D80000001FFF7ADFEFFF703FA00BFFEE700002A
:100D90000102030405060708B80D00080000002042
:100DA00024000000580D0008DC0D0008240000207D
:100DB000F4040000680D00080000000001020304B4
:100DC00001020304060708090204060800000000E7
:0C0DD00000000000000000000000000017
:0400000508000131BD
:00000001FF
